:020000040800F2
:10000000B1AA010000000000000000000000000094
:1000100000000000000000000000000000000000E0
:1000200000000000000000000000000000000000D0
:1000300000000000000000000000000000000000C0
:1000400000000000000000000000000000000000B0
:1000500000000000000000000000000000000000A0
:100060000000000000000000000000000000000090
:100070000000000000000000000000000000000080
:100080000000000000000000000000000000000070
:100090000000000000000000000000000000000060
:1000A0000000000000000000000000000000000050
:1000B0000000000000000000000000000000000040
:1000C0000000000000000000000000000000000030
:1000D0000000000000000000000000000000000020
:1000E0000000000000000000000000000000000010
:1000F0000000000000000000000000000000000000
:1001000000000000000000000000000000000000EF
:1001100000000000000000000000000000000000DF
:1001200000000000000000000000000000000000CF
:1001300000000000000000000000000000000000BF
:1001400000000000000000000000000000000000AF
:100150000000000000000000000000007370043088
:10016000170500001305C5FF8545F605637BB5003F
:1001700089816378B500170500001305C5002E9529
:1001800002859302002073A0027D970200009382F3
:1001900062E773907230971200009382E24273908C
:1001A000C27E73E0C07E971200009382A2397390E2
:1001B0005230970100189381E16C178100181301E8
:1001C00061E4172500001305651B9705001893854A
:1001D00065E317060018130666EB63FAC500832271
:1001E000050023A0550011059105E3EAC5FE17059A
:1001F00000181305A5E9970500189385A5F2637704
:10020000B500232005001105E36DB5FE73F0023241
:1002100017250000130545EC97200000E78060E7F4
:1002200097200000E780C0EE97100000E78060F0A4
:100230000145814597000000E780801C17230000DE
:10024000670023E601A073E00232828073F002327D
:0402500082800000A8
:100280000A50726F6772616D2068617320657869CA
:10029000746564207769746820636F64653A000050
:1002A000307800006E6D690A0000000074726170A1
:1002B0000A0000000000000000000000000059409B
:1002C000881B0000D81A0000DE1A0000D81A0000AF
:1002D0007A1B0000D81A0000DE1A0000881B0000FC
:1002E000881B00007A1B0000DE1A0000BE1A000006
:1002F000BE1A0000BE1A0000E21A0000000102024D
:1003000003030303040404040404040405050505AD
:100310000505050505050505050505050606060689
:10032000060606060606060606060606060606066D
:100330000606060606060606060606060707070759
:10034000070707070707070707070707070707073D
:10035000070707070707070707070707070707072D
:10036000070707070707070707070707070707071D
:100370000707070707070707070707070808080809
:1003800008080808080808080808080808080808ED
:1003900008080808080808080808080808080808DD
:1003A00008080808080808080808080808080808CD
:1003B00008080808080808080808080808080808BD
:1003C00008080808080808080808080808080808AD
:1003D000080808080808080808080808080808089D
:1003E000080808080808080808080808080808088D
:1003F000080808080808080808080808797106D6D7
:1004000022D426D24AD04ECE5AC85EC662C452CC3E
:1004100056CA97100000E780602997100000E78017
:10042000002D97100000E780003497100000E7804F
:10043000403B014597100000E78080D209459710A6
:100440000000E78000E7B707000803AB872B83AB0A
:10045000C72B3724014001498144130404408549D6
:10046000130C803E8945228597000000E780A04557
:10047000631D35039145228597000000E780A04465
:10048000631F350B8145228597000000E780E0401F
:100490008945AA8A228597000000E780604391453C
:1004A000228597000000E780A04297100000E780B7
:1004B00000233DC1850497100000E7804027971076
:1004C0000000E780602D639C840193041900CA85B5
:1004D0000145268997100000E780602F814497101E
:1004E0000000E7802033634905025685972000000D
:1004F000E78040975A86DE8697100000E78020420A
:1005000097200000E78000A397200000E780809CF0
:1005100097100000E78080FE814509459710000094
:10052000E780E02A85450D4597100000E780202AE6
:100530008545228597000000E780A03325B72285F6
:1005400097000000E780E0349375F50F2A8A114583
:1005500097100000E780A02793558A401545971013
:100560000000E780C026894525BF4111B72701401B
:1005700006C693870740630BF500B73701409387A2
:1005800007806303F502B240410182801305903079
:1005900097000000E780404013059030B2404101D1
:1005A000170300006700C3401305A0309700000048
:1005B000E780803E1305A030D5B7B727014003A7D9
:1005C0004740B706F1FFFD16758F23A2E74003A74A
:1005D0004740598D23A2A740828093F7051013F757
:1005E000054089890DC289C75C4193E707105CC14A
:1005F00009C75C4193E707405CC189C51C4593E787
:1006000027001CC5828089C75C4193F7F7EF5CC166
:1006100009C75C4193F7F7BF5CC1EDD51C45F59B5D
:10062000CDB71C4599C5056713070780D98F1CC531
:1006300082807D771307F77FF98FD5BF1C45858BA7
:1006400089E71C4593E717001CC582801C451307EA
:10065000850093E787001CC51C43A18BF5FF1C4553
:1006600093E747001CC51C43918BF5FF8280372719
:10067000014083278740B7068000D58F2324F740A9
:10068000828085476386F50089476382F502828010
:100690005C55370710FF7D17F98F5CD55C557D16CB
:1006A00052063707F000798E5D8E50D582801C5D32
:1006B0003707D0FF7D17F98F1CDD1C5D7D165206B4
:1006C00037073000798E5D8E10DD828015476363B9
:1006D000B704B385E50203284503FD47B397B70088
:1006E00093C7F7FFB3F70701B315B600DD8D4CD9FB
:1006F000A54763E9C7068D473306F6020C491D4737
:100700003317C7001347F7FF6D8F3396C600598E16
:1007100010C98280AD4763E3B702E915B385E502EE
:1007200003280503FD47B397B70093C7F7FFB3F757
:100730000701B315B600DD8D0CD95DBFBD47E3E9F8
:10074000B7FAD115B385E5020328C502FD47B39773
:10075000B70093C7F7FFB3F70701B315B600DD8DF8
:100760004CD579B7C54763E1C7028D4759163306A3
:10077000F60258459D47B397C70093C7F7FFF98F17
:100780003396C600D18F5CC582801C5D7D470328EF
:100790008503D1838D8BB385B740ED57B385F502C3
:1007A000A547BD053317B7001347F7FF3377070198
:1007B000B315B600D98D0CDD63E1C7020D473306D2
:1007C000E6021C491D473317C7001347F7FF7D8F0B
:1007D0003396C600598E10C98280C54763E1C702AF
:1007E0008D4759163306F60258459D47B397C70003
:1007F00093C7F7FFF98F3396C600D18F5CC582800F
:1008000085476386F5008947638DF500828014452E
:10081000B705F2FFFD15ED8E14C51845518F18C5AB
:1008200082801845E576FD16758F18C51C45D18F59
:100830001CC5828093F71500898909CE91C71C4594
:1008400037071000D98F1CC589C51C452167D98F72
:100850001CC5828099C71C453707F0FF7D17F98FAB
:100860001CC5E5D91C4561777D17F98FD5B793F77E
:10087000150091C71C4537074000D98F1CC58989D1
:1008800091C51C4537072000D98F1CC5828068455B
:100890004205418182808547638FF50099C9894768
:1008A000638DF5008D47638CF5000145420541815C
:1008B0008280485DE5BF2841D5BF6841C5BF284556
:1008C000F5B708416D8D3335A00082801C4193C57A
:1008D000F5FFFD8D0CC1828093F7050193F8F500BB
:1008E00099C3B3E8C8008147054EBD4E130F80027F
:1008F000930F800421433316FE00758E1DC213979B
:100900002700832205003398EE001348F8FF337860
:1009100058003397E800336707016399E50550C92C
:1009200018C18507E39967FC054EBD4E130F800281
:10093000930F800441433316FE00758E05C613974E
:1009400027000117832245003398EE001348F8FF73
:10095000337858003397E80033670701639CE5015B
:1009600050C958C18507E39867FC8280E39AF5FB7C
:1009700010C97DB7E397F5FF10C9E5B7B717024077
:10098000135765003E9714438547B397A700D58F4B
:100990001CC38280B7170240135765003E9714436B
:1009A0008547B397A700D58F1CC38280B717024035
:1009B000135765003E9714438547B397A70093C725
:1009C000F7FFF58F1CC38280B7170240DC4337471F
:1009D000FFEF7D17F98F1547630EE5006369A700E8
:1009E0000D476370A702371702405CC382801D4722
:1009F000E31BE5FE3A053177798D5D8DB707001071
:100A000011A03A05C98FC5B74111B717004006C6F6
:100A1000138707C0630EE5086367A7023707004026
:100A2000930607406304D506938707806309F5069C
:100A30006312E50A1305004097000000E780C0F547
:100A40001305004035A813870740630CE5063737C8
:100A50000140130707C0630DE500631DF50613058C
:100A6000404097000000E78020F31305404009A8AC
:100A70001305B03097000000E78000F21305B03096
:100A8000B240410117030000670083F213051040D4
:100A900097000000E78040F013051040D5B713051C
:100AA000204097000000E78020EF13052040C9BFD9
:100AB0001305304097000000E78000EE130530403A
:100AC000C1B71305504097000000E780E0EC130524
:100AD00050407DB7B24041018280C167FD1723209D
:100AE0000500231205001CC5231605002307050079
:100AF000828083D7050003D745009376F5BF1CD5C8
:100B0000B7370140938707C0418B630AF500FD7733
:100B10009387F73FE98F370600406390C7061C4173
:100B200093F7F7F81CC183D72500104193F7070608
:100B3000D18F1CC11C415D8F18C19C455CD5B71776
:100B400000406387F6021C4193F7F7CF1CC183D79F
:100B5000C500184193F70730D98F1CC1B737014042
:100B6000138707C06316E50003C7E50023A8E7C2A3
:100B70005C4993E717005CC982801C41BD9B55BF4F
:100B80001C4193E717001CC182801C4193E70708B2
:100B90001CC18280231005002311050023120500CB
:100BA00023130500231405002315050082808547C3
:100BB000638EF50881C989476389F5128D4763877C
:100BC000F51C82801C51F99B1CD1185183570600DB
:100BD000D98F1CD11C51F59B1CD11851835746004D
:100BE000D98F1CD1B7370140138707C0631CE504B8
:100BF00018516D9B18D1145103572600558F18D1E9
:100C000018515D9B18D1145103576600558F18D1A8
:100C100003A747C01377F7EF23A2E7C083A647C017
:100C200003578600558F23A2E7C003A747C0137759
:100C3000F7DF23A2E7C083A647C00357A600558F5E
:100C400023A2E7C01C4DF19B1CCD82801C51BD9B93
:100C50001CD18357060018519207D98F1CD11C5103
:100C600093F7F7FD1CD18357460018519207D98F8F
:100C70001CD1B7370140138707C06314E50618512C
:100C80001377F7FB18D10357260014511207558F1D
:100C900018D118511377F7F718D10357660014517C
:100CA0001207558F18D103A747C01377F7BF23A2A8
:100CB000E7C00357860083A647C00A07558F23A2C3
:100CC000E7C003A747C0FD769386F67F758F23A202
:100CD000E7C00357A60083A647C00A07558F23A283
:100CE000E7C01C4D93F7F7CF85B71C5193F7F7EF8B
:100CF0001CD1835706001851A207D98F1CD11C5153
:100D000093F7F7DF1CD1835746001851A207D98FFC
:100D10001CD1B7370140138707C06315E50618518A
:100D20001377F7BF18D10357260014512207558FA8
:100D300018D11851FD769385F67F6D8F18D1035722
:100D400066000C51FD1622074D8F18D103A747C02E
:100D5000F98E23A2D7C00357860083A647C0120787
:100D6000558F23A2E7C003A747C0F976FD16758FFC
:100D700023A2E7C00357A60083A647C01207558FDA
:100D800023A2E7C05C4DF19B5CCD82801C517D7736
:100D90007D17F98F1CD1835706001851B207D98FE0
:100DA0001CD11C5179777D17F98F1CD183574600D0
:100DB0001851B207D98F1CD1B7370140138707C02C
:100DC0006311E50203A747C0F176FD16758F23A2D4
:100DD000E7C00357860083A647C01A07558F23A292
:100DE000E7C05C4D93F7F7CF45B785476382F502BF
:100DF00081C989476386F5028D47638BF50282803E
:100E00001C4D93F7F7F81CCD1C4D5D8E10CD8280E4
:100E10001C4D65777D17F98F1CCD1C4D2206F5B74B
:100E20005C4D93F7F7F85CCD5C4D5D8E50CD8280C4
:100E30005C4D65777D17F98F5CCD5C4D2206F5B76B
:100E40008547638CF50081C98947638AF5008D4722
:100E50006389F500828050D9828010DD828050DD68
:100E6000828030C1828085476381F50281C98947CC
:100E70006386F5028D47638AF50282801C4DDD9BF7
:100E80001CCD1C4D5D8E10CD82801C4D7D771307CF
:100E9000F77FF98F1CCD1C4D2206EDB75C4DDD9B15
:100EA0005CCD5C4D5D8E50CD82805C4D7D771307AF
:100EB000F77FF98F5CCD5C4D2206EDB7B717024086
:100EC0009843B706FFE0B1061367170098C3D843ED
:100ED000758FD8C39843B706F7FEFD16758F98C374
:100EE0009843B706FCFFFD16758F98C3D843B70625
:100EF00001DFFD16758FD8C323A607029843B706F6
:100F0000F7EAFD16758F98C33707FF0098C794431B
:100F10004167D98E94C39307F7FF371702401443F4
:100F20001396E60063440600FD17F5FBB717024071
:100F300098439316E70063C3060001A0D843B706A1
:100F4000C4DFFD16D8C3D843D8C3D84313670740BE
:100F5000D8C3D843758FD8C3D843B7062920558F37
:100F6000D8C3D857BD76758FD8D7D857C166938662
:100F700016F1558FD8D79843B7060004558F98C3FC
:100F8000B7170240984393164700E3DD06FE9843E7
:100F9000B7060010558F98C3B717024098439316B1
:100FA0002700E3DD06FE9843B7060001558F98C37E
:100FB000B7170240984393166700E3DD06FED84357
:100FC000719BD8C3D84313672700D8C33717024093
:100FD0005C43A18BF5DF82807971B705000822D4CC
:100FE0007D462A84938505280A8506D69710000039
:100FF000E780A01879468A85094597100000E780A8
:101000002019A285094597000000E780E001B70597
:10101000000805469385052B094597100000E780D9
:10102000201701A079714ECEAE89B7050008094698
:101030009385052A22D426D24AD052CC56CA06D647
:101040002A89714497100000E78080143D4AA54A20
:10105000F154B3178A00B3F73701B3D7870093F77A
:10106000F70F63ECFA029387070393F7F70F054630
:101070009305F1004A857114A307F1009710000051
:10108000E7800011E31794FCB250225492540259A5
:10109000F249624AD24A4561828093877703F1B769
:1010A000B70700D223800700A38507001205B717F2
:1010B00000D23E9563E3A700828023A00700C1070A
:1010C000D5BFF327503093F707FC93E737007390B1
:1010D00057308280B7050008411115469385452A8F
:1010E000054506C697100000E780800A0545970071
:1010F0000000E780A0EE41119347F5FF22C406C629
:10110000139747012A8409E797000000E780C0FC95
:10111000B705000815469385C52A054597100000B8
:10112000E7800007228597000000E78020EB41114F
:1011300006C697000000E780A0D813057005970049
:101140000000E78020F697000000E780C0F7B2407B
:10115000410117F3FFFF6700430F8280411126C250
:10116000AA841305206006C622C497000000E78009
:1011700020811305906097000000E78060800D4596
:1011800097000000E7808084371401401305048035
:10119000A1464146814597F0FFFFE78020749146C4
:1011A000414681451305048097F0FFFFE7800073F7
:1011B000372401401305044097F0FFFFE780203BF0
:1011C000014597F0FFFFE780803F01468945130501
:1011D000044097F0FFFFE780804001469305001030
:1011E0001305044097F0FFFFE780603F814513053A
:1011F000044097F0FFFFE78000430546854513054F
:10120000044097F0FFFFE780004889460D4681457E
:101210001305044097F0FFFFE780804B37060E0070
:1012200085451305044097F0FFFFE780A05D054664
:1012300085451305044097F0FFFFE780E05F9DCCF4
:101240000546930500401305044097F0FFFFE78033
:101250000039054689451305044097F0FFFFE780F4
:10126000804297F0FFFFE780C0409D46454681459C
:101270001305044097F0FFFFE780605137240140D9
:101280001305044097F0FFFFE780803B13050440FF
:1012900097F0FFFFE780C03B130504402244B240B3
:1012A00092448545410117F3FFFF6700835C397164
:1012B00022DC2A841305206006DE4ED626DA4AD8C0
:1012C00097F0FFFFE780C06B13050060937914006F
:1012D00097F0FFFFE780C06A638D09003715014072
:1012E00085460D46E1451305058097F0FFFFE78031
:1012F000E05E13792400630D09003715014089462B
:101300000D46E1451305058097F0FFFFE780005D7E
:101310009374440081CC3715014091460D46E14558
:101320001305058097F0FFFFE780405B218801CC23
:1013300037150140A1460D46E1451305058097F09C
:10134000FFFFE780A0591305007097F0FFFFE780CB
:1013500020633705004097F0FFFFE780206B080807
:1013600097F0FFFFE780A0779307B0063EC891672C
:101370009387F7E70C08370500403ECC231A01009D
:10138000231E0100230F010097F0FFFFE780A076E6
:10139000480097000000E780208085473EC202C4D5
:1013A00002C6638A09005000814537050040970056
:1013B0000000E7800080630A09005000854537057A
:1013C000004097F0FFFFE780C07E89C85000894544
:1013D0003705004097F0FFFFE780A07D09C8500067
:1013E0008D453705004097F0FFFFE780807C638DD7
:1013F00009020D661306F6ED81453705004097009A
:101400000000E78020A41306000681453705004050
:1014100097000000E780A09D014681453705004008
:1014200097000000E78060A4630D09020D661306B3
:10143000F6ED85453705004097000000E78080A065
:101440001306000685453705004097000000E78039
:10145000009A014685453705004097000000E78067
:10146000C0A085CC0D661306F6ED89453705004012
:1014700097000000E780009D1306000689453705A8
:10148000004097000000E7808096014689453705B7
:10149000004097000000E780409D05CC0D661306D4
:1014A000F6ED8D453705004097000000E7808099F4
:1014B000130600068D453705004097000000E780C1
:1014C000009301468D453705004097000000E780F6
:1014D000C0993705004097F0FFFFE780406B370564
:1014E000004097F0FFFFE780E069F2506254D25469
:1014F0004259B259216182802A86894537050040C8
:1015000017030000670003940000000000000000C3
:1015100000000000000000000000000000000000CB
:1015200000000000000000000000000000000000BB
:1015300000000000000000000000000000000000AB
:101540005D7106C012C216C41AC61EC82ACA2ECCA5
:1015500032CE36D03AD23ED442D646D872DA76DC93
:101560007ADEFEC0F322103496C0F322003096C219
:10157000F322407C96C4732520348A8597000000AE
:10158000E780A0B78642739012349642739002307F
:10159000A6427390427C82401242A2423243C2432E
:1015A0005245E245724682561257A2573258C258E7
:1015B000525EE25E725F864F616173002030000010
:1015C000000000005D7106C012C216C41AC61EC813
:1015D0002ACA2ECC32CE36D03AD23ED442D646D8C3
:1015E00072DA76DC7ADEFEC073D0E87E7350F97E64
:1015F00073D0B97EF390D07E73700430B64273908E
:10160000427CA642739012349642739022348240F8
:101610001242A2423243C2435245E24572468256CA
:101620001257A2573258C258525EE25E725F864F1E
:10163000616173002030AA82B68E214363C46E00BC
:101640009102E11E8A0E3D433313D3011343F3FF8E
:10165000AE83B3E3C300B393D30103AE0200337E82
:101660006E00336E7E0023A0C2018280F18D2D8E2C
:101670004206D18D0CC982804CC982804CC58280C3
:101680000C458280B712024003A3C2013363A3005A
:1016900023AE62008280B712024003A3820133634B
:1016A000A30023AC62008280711106C041459700FF
:1016B0000000E78060FDB71200401303B00623A4CA
:1016C00062021303703E23A6620223A802000543B0
:1016D00023A06200824011018280B712004003A55E
:1016E000020119C123A802008280711106C02145A0
:1016F00097000000E78060FA37150140130505C028
:1017000081450D4681460D4797000000E780E0F2D5
:101710008506E39BE6FE82401101828097F2FF1767
:101720009382428E038502008280711106C03715B4
:101730000140130505C097F2FF179382A28C8385A1
:101740000200FD1563D305009D452380B2001D46B0
:1017500097000000E780C0F103850200824011017C
:101760008280711106C0214597000000E780E0F2F9
:1017700037150140130505C081450D46A146414777
:1017800097000000E78060EB8506E39BE6FE824061
:1017900011018280711106C097F2FF179382C286F1
:1017A00083A20200AA9237150140130505C083C524
:1017B0000200A20537060100130606F0970000009C
:1017C000E78000EB82401101828097F2FF1793823D
:1017D000A28383A20200AA922380B20082807111A8
:1017E00006C0114597000000E78020EB3715014047
:1017F0001305058081451146954625479700000051
:10180000E780A0E38506E39BE6FE8240110182802B
:10181000711106C07D5E97EEFF17938EBE7F03A306
:101820000E009303F3FF23A07E006397030423A01D
:101830006E00371501401305058097000000E78012
:1018400060E49581BD898DC985813335B00033034E
:10185000A00085813335B0002A9385813335B000EF
:101860002A9397000000E780A0EB0A05336EA300DF
:101870001303002023A06E00728582401101828034
:1018800097E2FF179382527923900200828097E2B9
:10189000FF179382727803D30200A5430503137EDA
:1018A000F30063D8C3031903135E4300137EFE00E5
:1018B00063D1C30313030306135E8300137EFE008C
:1018C00063D9C30113030360135EC30063D3C30171
:1018D000014323906200828097E2FF179382D273C4
:1018E00003D50200828097E2FF179382127303A34D
:1018F00002007D1323A06200635003021303F0086B
:1019000023A0620097E2FF179382027003A30200F4
:101910001343130023A062008280797113D845011C
:1019200026D24ECE52CC5AC85EC69394C50006D677
:1019300022D44AD056CA1378F87F2A8BB28B368AC3
:10194000B18093D9F501630408089307F07F630E13
:10195000F80C935AD5018E04B3E49A00B70A8000BC
:10196000B3EA540113143500130918C0014B135581
:101970004A019314CA001378F57FB180135AFA0113
:101980006308080C9307F07F6301F8121395340085
:1019900093D7DB015D8DB7048000C98C139F3B009A
:1019A000130518C0814713172B005D8F7D17B946AB
:1019B00033C649013308A94063EBE61097F6FFFFF1
:1019C000938646900A073697184336970287B3EAFC
:1019D000A40063860A068DCC268597000000E78068
:1019E0008067930755FF7147634BF702F54A13046D
:1019F00085FFB38AFA40B3948400B35A5B01B3EA1B
:101A00009A0033148B001308D0C03309A840B9BF23
:101A100097000000E780206413050502D9B79304FE
:101A200085FDB31A9B000144F9BFB3EAA400638C9F
:101A30000A002A84A68A1309F07F0D4B0DBF0144CA
:101A40000149054B2DB701441309F07F094B05B738
:101A500033EF740163040F069DC8268597000000CC
:101A6000E780605F930755FF7147634AF702754748
:101A7000130F85FF1D8FB394E40133D7EB00D98C8E
:101A8000339FEB011306D0C03305A64021BF5E850E
:101A900097000000E780205C13050502E1B793047E
:101AA00085FDB3949B00014FF1BF33EF7401630BCD
:101AB0000F005E8F1305F07F8D47F5B5814401451A
:101AC0008547D5B581441305F07F8947E9BD63E6B5
:101AD000540163939A2A6361E42B9396FA01135796
:101AE00014009317F40193DA1A0033E4E600139517
:101AF000840093548F01458D135E0501B3D8CA034A
:101B000013130501135303011357040193158F0099
:101B1000B3F4CA03C68FB3061303939A0401336761
:101B20005701637CD7002A97938FF8FF6367A7005C
:101B30006375D700938FE8FF2A97158FB35EC703AD
:101B4000420441803377C703F686B308D3034207C4
:101B5000418F637C17012A979386FEFF6367A70076
:101B6000637517019386EEFF2A97C20FB3EFDF006C
:101B7000C166330417419388F6FF13DF0F0133F773
:101B80001F0193DE0501B3F81501B3031703B30476
:101B90001F033387EE02B302DF03330F970013D71F
:101BA00003017A9763739700B692135F0701169F3C
:101BB000C162FD12B3765700C206B3F353009E967E
:101BC0006367E401FE84631EE40363FCD702AE97FF
:101BD00033B7B7002A973A949384FFFF6366850072
:101BE0006311850263EFB7006366E401631B8F0036
:101BF00063F9D700AE9733B7B7002A979384EFFF06
:101C00003A94B386D7403304E441B3B7D7001D8C70
:101C10007D5F6305850E335FC40313D706013374FC
:101C2000C403B307E3034204598C7A87637CF4004E
:101C30002A941307FFFF6367A4006375F40013077A
:101C4000EFFF2A941D8C335FC403C206C182337434
:101C5000C403FA873303E3034204558C637C6400B6
:101C60002A949307FFFF6367A400637564009307DA
:101C7000EFFF2A9442075D8F93170701C183330456
:101C8000644013530701338E1703B30813033383E0
:101C90006E02B38EFE0293570E01C69EF69763F452
:101CA0001701C166369393D807019A9841637D1353
:101CB000B3F66700C206337E6E00F29663661401C7
:101CC000631E14193A8F9DCA2A94130FF7FF63619C
:101CD000A402636614016312141963FDD50093977F
:101CE0001500B3B5B7002E95130FE7FF2A94BE85F4
:101CF000631414016384B600136F1F001307F83FC9
:101D00006357E00A93777F0081CF9377FF00914676
:101D10006388D70093064F0033BFE601FA94368FED
:101D20009397740063D80700B70700FFFD17FD8C79
:101D3000130708409307E07F63C8E710135F3F0075
:101D40009397D401B3E7E70113D534003205137735
:101D5000F77F5207B25022543181598D7E06336786
:101D6000C50092540259F249624AD24A424BB24BE0
:101D70003E85BA85456182807D1881478DBB4E8640
:101D8000D684228FDA8709476380E70C0D47638684
:101D9000E70A0547E394E7F60145814785A852869F
:101DA000DDB7B7040800014F01468D47E9BF05457F
:101DB000198D93078003E3C1A7FEFD4763CAA704FB
:101DC0001308E841B39704013357AF0033180F01EC
:101DD000D98F33380001B3E7070133D5A40013F7D7
:101DE000770001CF13F7F70091466308D7001387F8
:101DF0004700B337F7003E95BA8713178500634A4B
:101E000007041317D5018D83D98F0D8101473DBF7D
:101E10008557998F93060002B3D7F40001476306F4
:101E2000D5001308E84333970401336FE701333FCC
:101E3000E001B3E7E70101455DB7370508008147D9
:101E40001307F07F014619B7014581471307F07F5B
:101E5000F5BD014581470547D5BD7A873A8F69BDF4
:101E6000411106C622C426C22DC19357F54133C481
:101E7000A7001D8C9354F501228597000000E78090
:101E8000801D1307E041A947098F63CAA702AD4728
:101E9000898F5505B357F4003314A4002685B20783
:101EA0001377F77F5207B1837E05D98F33E7A700F9
:101EB000B240228522449244BA8541018280551560
:101EC000B317A40026850144D9BF01478147E5BF68
:101ED00037068000135775019307F6FF1377F70F46
:101EE0009305E007E98F9356F50163F1E504930547
:101EF000D00963F8E500370500801345F5FF3695F6
:101F0000828033E5C7009307500963DAE7001307BF
:101F1000A7F63315E50081CE3305A04082809307F4
:101F200060093387E7403355E500F5B70145828006
:101F30001396C500318213D84501931736001378E4
:101F4000F87F1356D5015D8E9307180093F7E77F4E
:101F5000FD8113173500D1C3930608C89307E00F1E
:101F600063CBD7086342D006A55763C9F60CB70701
:101F7000800079455D8E158DFD4763C3A702130868
:101F800028C8B3170701B337F000331606013355DD
:101F9000A700D18FC98F814613F7770025C34DA0C5
:101FA000F957B386D74093070002B356D60081484D
:101FB0006306F500130828CAB3180601B3E7E80062
:101FC000B337F000D58FC1BF1A053335A0000E0618
:101FD0009357D701498ED18FC1B7B367E600631518
:101FE0000800B337F00045BF9306F00F81CB0E0613
:101FF000B7070002CDB781479306F00F139757003C
:10200000635B070085061307F00F6382E60437075A
:1020100000FC7D17F98F1307F00F8D836396E600A0
:1020200081C7B70740008145A60793F6F60FDE0685
:10203000A583FE05D58F33E5B700828085478146AD
:1020400013F7F7001146E30BC7FA910745BF814725
:10205000D9B7C1676376F5029307F00FB3B7A7004E
:102060008E07130700021D8FB357F50017E5FFFF1A
:1020700013050529AA9703C507003305A7408280E9
:1020800037070001C147E36EE5FCE147D9BFAA85E8
:102090008146014601451703000067008314411182
:1020A00022C406C6970700009387671C2A8491C73D
:1020B000814597000000E780801B97070000938709
:1020C000A72B88431C5591C38297228597F0FFFF69
:1020D000E780C0F04111970700009387272A22C4A8
:1020E00017040000130484291D8C26C206C6098427
:1020F000BE8411E4B24022449244410182807D14A6
:1021000093172400A6979C438297E5B74111970740
:1021100000009387A72622C4170400001304042696
:102120001D8C26C24AC006C6098481443E89639636
:1021300084029707000093876724170400001304A4
:10214000E4231D8C098481443E89639F8400B2404E
:102150002244924402494101828093972400CA9705
:102160009C4385048297E1B793972400CA979C43C8
:1021700085048297D9BF2A8309CA83830500230077
:1021800073007D16050385056DFA828097E7FF17BA
:10219000938747EFB2862E86AA85884317030000EF
:1021A00067008300411122C42A842E85B2853686B9
:1021B00097E7FF1723A407F606C697000000E780FD
:1021C0008017FD576319F50097E7FF17938707F509
:1021D0009C4391C31CC0B24022444101828097E7D6
:1021E000FF179387A7EA9C432A8E8DE717E7FF170F
:1021F000130707EA97E7FF1723AAE7E817E5FFF7B2
:10220000130545E0BA8719C51C4117E5FF172325BB
:10221000F5F0BA87D8437D487D556347E804630EDF
:102220000E0203A887086301080493182700C298C8
:1022300023A0C8000323081005463316E6003363C5
:10224000C3002320681023A0D80889466317DE0046
:1022500083264810558E2322C810930617000A07BC
:10226000D4C3BA978CC701458280797152CC56CAC3
:102270005AC85EC606D622D426D24AD04ECE62C4F2
:102280002A8B2E8A97EAFF17938A4AE0854B03A48C
:102290000A0011C84440832984081389F4FF8A0482
:1022A000A294635E0900B250225492540259F2493A
:1022B000624AD24A424BB24B224C45618280630E45
:1022C0000A00639509007D19F114E1BF93172900F5
:1022D000CE9783A70708E39847FF5840DC407D1757
:1022E0006318270323222401F9DF032C44006388A9
:1022F000090083A6091033972B01F98E89EE829786
:10230000584083A70A00E31487F9E30EF4FA41B7B3
:1023100023A20400D1BF93162900CE968C4283A637
:102320004910758F01E75A858297D9BF2E8582970C
:10233000C1BF411106C622C48146014781479308A7
:102340000004730000002A84635A050033048040AF
:1023500097000000E780600100C17D542285B240F3
:1023600022444101828097E7FF179387A7D18843D2
:02237000828069
:042374002000002025
:102378000700000008000020AA55AA55AA55AA552A
:10238800AA00020000FFFF8F000000070000000005
:102398000000000000000000000000000000000035
:1023A8000000000000000000000000000000000025
:1023B8000000000000000000000000000000000015
:1023C8000000000000000000000000000000000005
:1023D80000000000000000000000000000000000F5
:1023E80000000000000000000000000000000000E5
:0823F80020000020000000009D
:040000050800015C92
:00000001FF
