:020000040800F2
:10000000B1AA010000000000000000000000000094
:1000100000000000000000000000000000000000E0
:1000200000000000000000000000000000000000D0
:1000300000000000000000000000000000000000C0
:1000400000000000000000000000000000000000B0
:1000500000000000000000000000000000000000A0
:100060000000000000000000000000000000000090
:100070000000000000000000000000000000000080
:100080000000000000000000000000000000000070
:100090000000000000000000000000000000000060
:1000A0000000000000000000000000000000000050
:1000B0000000000000000000000000000000000040
:1000C0000000000000000000000000000000000030
:1000D0000000000000000000000000000000000020
:1000E0000000000000000000000000000000000010
:1000F0000000000000000000000000000000000000
:1001000000000000000000000000000000000000EF
:1001100000000000000000000000000000000000DF
:1001200000000000000000000000000000000000CF
:1001300000000000000000000000000000000000BF
:1001400000000000000000000000000000000000AF
:100150000000000000000000000000007370043088
:10016000170500001305C5FF8545F605637BB5003F
:1001700089816378B500170500001305C5002E9529
:1001800002859302002073A0027D970200009382F3
:1001900062E773907230971200009382E2BE739010
:1001A000C27E73E0C07E971200009382A2B5739066
:1001B0005230970100189381E16C178100181301E8
:1001C00061E4171500001305252197050018938594
:1001D00065E317060018130666EB63FAC500832271
:1001E000050023A0550011059105E3EAC5FE17059A
:1001F00000181305A5E9970500189385A5F2637704
:10020000B500232005001105E36DB5FE73F0023241
:1002100017150000130505F197100000E78020EC8A
:1002200097100000E78080F397100000E78060954A
:100230000145814597000000E78000081713000082
:100240006700E3EA01A073E00232828073F00232B9
:0402500082800000A8
:100280000A50726F6772616D2068617320657869CA
:10029000746564207769746820636F64653A000050
:1002A000307800006E6D690A0000000074726170A1
:1002B0000A0000006D711306000B8145081023260B
:1002C0001110232481102322911023202111CEDF2D
:1002D000D2DDD6DBDED7E2D5E6D3DAD9EAD1EECF6E
:1002E00097100000E78080EF9306000836D255464D
:1002F0009306F00936D432D8C546214636D636DACA
:10030000B2C0FD46B2D6B2D805461305300236DC7F
:10031000B2DA9306200CB2DC1306800F9307000CB0
:1003200011479305100C1308800AB6C4B6C6AAD2AA
:100330008D46AAD4B2DE1305800832C71306000426
:100340003EC43EC62EC83ECA3ACC3ACEBEC8BECA8D
:10035000B6CEB6D02AC142C32AC532C932CB4D4629
:100360003ACF32D132D336D53EDB3EDD2EDFBEC1B1
:10037000BAC3BAC597100000E78040AF97100000DD
:10038000E780E0B297100000E780E0B99710000026
:10039000E78020C10145B724014097100000E780A5
:1003A0002081014481490149054A93840440854ADA
:1003B000930B0020130CA00F930CB00289452685E7
:1003C00097000000E7806040631E55012685970076
:1003D0000000E780003F2A8B8945268597000000B2
:1003E000E780403F97100000E78060AB61D997102D
:1003F0000000E780C0AF97100000E780E0B5B3458C
:100400007B031D450504B305B0409D05339DBA002F
:10041000EA8597100000E78080B7B3073C41860764
:100420006316F40663040A02131429003C003E9488
:10043000814D4C4C6E85850D97100000E78020B5EE
:100440009D477114E397FDFE05098509931729005F
:100450009809BA9783A587F3337DBD006354A00341
:1004600001441D4A22858145050497100000E7805C
:1004700000B2E31944FFCE850D4597100000E780D8
:1004800000B1014A0144631399010149854526855C
:1004900097000000E780E03015B74111B727014011
:1004A00006C693870740630BF500B7370140938773
:1004B00007806303F502B24041018280130590304A
:1004C00097000000E780803D13059030B240410165
:1004D000170300006700033E1305A03097000000DB
:1004E000E780C03B1305A030D5B7B727014003A76D
:1004F0004740B706F1FFFD16758F23A2E74003A71B
:100500004740598D23A2A740828093F7051013F727
:10051000054089890DC289C75C4193E707105CC11A
:1005200009C75C4193E707405CC189C51C4593E757
:1005300027001CC5828089C75C4193F7F7EF5CC137
:1005400009C75C4193F7F7BF5CC1EDD51C45F59B2E
:10055000CDB71C4599C5056713070780D98F1CC502
:1005600082807D771307F77FF98FD5BF1C45858B78
:1005700089E71C4593E717001CC582801C451307BB
:10058000850093E787001CC51C43A18BF5FF1C4524
:1005900093E747001CC51C43918BF5FF82803727EA
:1005A000014083278740B7068000D58F2324F7407A
:1005B000828085476386F50089476382F5028280E1
:1005C0005C55370710FF7D17F98F5CD55C557D169C
:1005D00052063707F000798E5D8E50D582801C5D03
:1005E0003707D0FF7D17F98F1CDD1C5D7D16520685
:1005F00037073000798E5D8E10DD8280154763638A
:10060000B704B385E50203284503FD47B397B70058
:1006100093C7F7FFB3F70701B315B600DD8D4CD9CB
:10062000A54763E9C7068D473306F6020C491D4707
:100630003317C7001347F7FF6D8F3396C600598EE7
:1006400010C98280AD4763E3B702E915B385E502BF
:1006500003280503FD47B397B70093C7F7FFB3F728
:100660000701B315B600DD8D0CD95DBFBD47E3E9C9
:10067000B7FAD115B385E5020328C502FD47B39744
:10068000B70093C7F7FFB3F70701B315B600DD8DC9
:100690004CD579B7C54763E1C7028D475916330674
:1006A000F60258459D47B397C70093C7F7FFF98FE8
:1006B0003396C600D18F5CC582801C5D7D470328C0
:1006C0008503D1838D8BB385B740ED57B385F50294
:1006D000A547BD053317B7001347F7FF3377070169
:1006E000B315B600D98D0CDD63E1C7020D473306A3
:1006F000E6021C491D473317C7001347F7FF7D8FDC
:100700003396C600598E10C98280C54763E1C7027F
:100710008D4759163306F60258459D47B397C700D3
:1007200093C7F7FFF98F3396C600D18F5CC58280DF
:1007300085476386F5008947638DF50082801445FF
:10074000B705F2FFFD15ED8E14C51845518F18C57C
:1007500082801845E576FD16758F18C51C45D18F2A
:100760001CC5828093F71500898909CE91C71C4565
:1007700037071000D98F1CC589C51C452167D98F43
:100780001CC5828099C71C453707F0FF7D17F98F7C
:100790001CC5E5D91C4561777D17F98FD5B793F74F
:1007A000150091C71C4537074000D98F1CC58989A2
:1007B00091C51C4537072000D98F1CC5828068452C
:1007C00042054181828008416D8D3335A0008280D1
:1007D0001C4193C5F5FFFD8D0CC1828093F7050187
:1007E00093F8F50099C3B3E8C8008147054EBD4EA4
:1007F000130F8002930F800421433316FE00758E81
:100800001DC213972700832205003398EE0013487A
:10081000F8FF337858003397E8003367070163998E
:10082000E50550C918C18507E39967FC054EBD4E23
:10083000130F8002930F800441433316FE00758E20
:1008400005C6139727000117832245003398EE0051
:100850001348F8FF337858003397E80033670701EF
:10086000639CE50150C958C18507E39867FC828005
:10087000E39AF5FB10C97DB7E397F5FF10C9E5B71B
:10088000B7170240135765003E9714438547B39747
:10089000A700D58F1CC38280B7170240135765008D
:1008A0003E9714438547B397A700D58F1CC382801A
:1008B000B7170240135765003E9714438547B39717
:1008C000A70093C7F7FFF58F1CC38280B7170240BC
:1008D000DC433747FFEF7D17F98F1547630EE500BF
:1008E0006369A7000D476370A702371702405CC316
:1008F00082801D47E31BE5FE3A053177798D5D8DDA
:10090000B707001011A03A05C98FC5B7B717024045
:100910009843B706FFE0B1061367170098C3D843A2
:10092000758FD8C39843B706F7FEFD16758F98C329
:100930009843B706FCFFFD16758F98C3D843B706DA
:1009400001DFFD16758FD8C323A607029843B706AB
:10095000F7EAFD16758F98C33707FF0098C79443D1
:100960004167D98E94C39307F7FF371702401443AA
:100970001396E60063440600FD17F5FBB717024027
:1009800098439316E70063C3060001A0D843B70657
:10099000C4DFFD16D8C3D843D8C3D8431367074074
:1009A000D8C3D843758FD8C3D843B7062920558FED
:1009B000D8C3D857BD76758FD8D7D857C166938618
:1009C00016F1558FD8D79843B7060004558F98C3B2
:1009D000B7170240984393164700E3DD06FE98439D
:1009E000B7060010558F98C3B71702409843931667
:1009F0002700E3DD06FE9843B7060001558F98C334
:100A0000B7170240984393166700E3DD06FED8430C
:100A1000719BD8C3D84313672700D8C33717024048
:100A20005C43A18BF5DF82807971B705000822D481
:100A30007D462A84938505280A8506D697000000FE
:100A4000E780607879468A85094597000000E7804D
:100A5000E079A285094597000000E780E001B7052D
:100A6000000805469385052B094597000000E7809F
:100A7000E07701A079714ECEAE89B705000809462E
:100A80009385052A22D426D24AD052CC56CA06D6FD
:100A90002A89714497000000E78040753D4AA54AC5
:100AA000F154B3178A00B3F73701B3D7870093F730
:100AB000F70F63ECFA029387070393F7F70F0546E6
:100AC0009305F1004A857114A307F1009700000017
:100AD000E780C071E31794FCB2502254925402593B
:100AE000F249624AD24A4561828093877703F1B71F
:100AF000B70700D223800700A38507001205B717A8
:100B000000D23E9563E3A700828023A00700C107BF
:100B1000D5BFF327503093F707FC93E73700739066
:100B200057308280B7050008411115469385452A44
:100B3000054506C697000000E780406B0545970015
:100B40000000E780A0EE41119347F5FF22C406C6DE
:100B5000139747012A8409E797000000E780C0FC4B
:100B6000B705000815469385C52A0545970000007E
:100B7000E780C067228597000000E78020EB4111E5
:100B800006C697000000E780A0D8130570059700FF
:100B90000000E78020F697000000E780C0F7B24031
:100BA000410117F3FFFF6700436A8280411126C2AB
:100BB000AA841305206006C622C497000000E780BF
:100BC00060CC1305906097000000E780A0CB0D4536
:100BD00097000000E780C0CF371401401305048060
:100BE000A1464146814597000000E78060BF9146DD
:100BF000414681451305048097000000E78040BE10
:100C0000372401401305044097000000E780208945
:100C1000014597000000E780808D01468945130556
:100C2000044097000000E780808E01469305001085
:100C30001305044097000000E780608D814513058F
:100C4000044097000000E7800091054685451305A4
:100C5000044097000000E780009689460D468145D4
:100C60001305044097000000E780809937060E00C6
:100C700085451305044097000000E780A0AB0546BA
:100C800085451305044097000000E780E0AD9DCC4A
:100C90000546930500401305044097000000E780D7
:100CA0000087054689451305044097000000E7804A
:100CB000809097000000E780C08E9D4645468145A4
:100CC0001305044097000000E780609F372401402F
:100CD0001305044097000000E78080891305044055
:100CE00097000000E780C089130504402244B24009
:100CF00092448545410117030000670083AA000064
:100D00005D7106C012C216C41AC61EC82ACA2ECCED
:100D100032CE36D03AD23ED442D646D872DA76DCDB
:100D20007ADEFEC0F322103496C0F322003096C261
:100D3000F322407C96C4732520348A8597000000F6
:100D4000E780A0E08642739012349642739002309E
:100D5000A6427390427C82401242A2423243C24376
:100D60005245E245724682561257A2573258C2582F
:100D7000525EE25E725F864F616173002030000058
:100D8000000000005D7106C012C216C41AC61EC85B
:100D90002ACA2ECC32CE36D03AD23ED442D646D80B
:100DA00072DA76DC7ADEFEC073D0E87E7350F97EAC
:100DB00073D0B97EF390D07E73700430B6427390D6
:100DC000427CA64273901234964273902234824041
:100DD0001242A2423243C2435245E2457246825613
:100DE0001257A2573258C258525EE25E725F864F67
:100DF000616173002030AA82B68E214363C46E0005
:100E00009102E11E8A0E3D433313D3011343F3FFD6
:100E1000AE83B3E3C300B393D30103AE0200337ECA
:100E20006E00336E7E0023A0C2018280F18D2D8E74
:100E30004206D18D0CC982804CC982804CC582800B
:100E40000C458280B712024003A3C2013363A300A2
:100E500023AE62008280B712024003A38201336393
:100E6000A30023AC62008280711106C04145970047
:100E70000000E78060FDB71200401303B00623A412
:100E800062021303703E23A6620223A802000543F8
:100E900023A06200824011018280B712004003A5A6
:100EA000020119C123A802008280711106C02145E8
:100EB00097000000E78060FA37150140130505C070
:100EC00081450D4681460D4797000000E780E0F21E
:100ED0008506E39BE6FE82401101828097F2FF17B0
:100EE00093824212038502008280711106C0371579
:100EF0000140130505C097F2FF179382A210838566
:100F00000200FD1563D305009D452380B2001D46F8
:100F100097000000E780C0F10385020082401101C4
:100F20008280711106C0214597000000E780E0F241
:100F300037150140130505C081450D46A1464147BF
:100F400097000000E78060EB8506E39BE6FE8240A9
:100F500011018280711106C097F2FF179382C20AB5
:100F600083A20200AA9237150140130505C083C56C
:100F70000200A20537060100130606F097000000E4
:100F8000E78000EB82401101828097F2FF17938285
:100F9000A20783A20200AA922380B200828071116C
:100FA00006C0114597000000E78020EB371501408F
:100FB0001305058081451146954625479700000099
:100FC000E780A0E38506E39BE6FE82401101828074
:100FD000711106C07D5E97FEFF17938EBE0303A3BB
:100FE0000E009303F3FF23A07E006397030423A066
:100FF0006E00371501401305058097000000E7805B
:1010000060E49581BD898DC985813335B000330396
:10101000A00085813335B0002A9385813335B00037
:101020002A9397000000E780A0EB0A05336EA30027
:101030001303002023A06E0072858240110182807C
:1010400097F2FF17938252FD23900200828097F25D
:10105000FF17938272FC03D30200A5430503137E9E
:10106000F30063D8C3031903135E4300137EFE002D
:1010700063D1C30313030306135E8300137EFE00D4
:1010800063D9C30113030360135EC30063D3C301B9
:10109000014323906200828097F2FF179382D2F778
:1010A00003D50200828097F2FF17938212F703A301
:1010B00002007D1323A06200635003021303F008B3
:1010C00023A0620097F2FF17938202F403A30200A9
:1010D0001343130023A062008280AA858146014643
:1010E00001451703000067008315411122C406C69D
:1010F000970700009387671D2A8491C78145970051
:101100000000E780801C970700009387A72C884386
:101110001C5591C38297228597000000E7800091BB
:101120004111970700009387272B22C41704000062
:101130001304842A1D8C26C206C60984BE8411E4C9
:10114000B24022449244410182807D1493172400CE
:10115000A6979C438297E5B74111970700009387B4
:10116000A72722C417040000130404271D8C26C2DD
:101170004AC006C6098481443E8963968402970763
:10118000000093876725170400001304E4241D8CD6
:10119000098481443E89639F8400B2402244924482
:1011A00002494101828093972400CA979C43850499
:1011B0008297E1B793972400CA979C43850482974E
:1011C000D9BF2A8309CA83830500230073007D16D3
:1011D000050385056DFA82802A8311C62300B300BA
:1011E0007D16050365FE828097F7FF17938787E9D1
:1011F000B2862E86AA858843170300006700830005
:10120000411122C42A842E85B285368697F7FF17AE
:1012100023A607F006C697000000E7808017FD5759
:101220006319F50097F7FF17938747EF9C4391C326
:101230001CC0B24022444101828097F7FF17938778
:10124000E7E49C432A8E8DE717F7FF17130747E45F
:1012500097F7FF1723ACE7E217F5FFF7130585DAD9
:10126000BA8719C51C4117F5FF172327F5EABA8776
:10127000D8437D487D556347E804630E0E0203A8FA
:1012800087086301080493182700C29823A0C800A8
:101290000323081005463316E6003363C3002320FA
:1012A000681023A0D80889466317DE0083264810FB
:1012B000558E2322C810930617000A07D4C3BA9785
:1012C0008CC701458280797152CC56CA5AC85EC615
:1012D00006D622D426D24AD04ECE62C42A8B2E8A7B
:1012E00097FAFF17938A8ADA854B03A40A0011C87C
:1012F0004440832984081389F4FF8A04A294635E1E
:101300000900B250225492540259F249624AD24A18
:10131000424BB24B224C45618280630E0A006395BA
:1013200009007D19F114E1BF93172900CE9783A717
:101330000708E39847FF5840DC407D1763182703F0
:1013400023222401F9DF032C44006388090083A6CB
:10135000091033972B01F98E89EE8297584083A7A5
:101360000A00E31487F9E30EF4FA41B723A204005C
:10137000D1BF93162900CE968C4283A64910758F53
:1013800001E75A858297D9BF2E858297C1BF411147
:1013900006C622C4814601478147930800047300B2
:1013A00000002A84635A050033048040970000003F
:1013B000E780600100C17D542285B2402244410192
:0E13C000828097F7FF179387E7CB88438280E0
:0413D00020000020D9
:1013D40007000000080000200000000000000000DA
:1013E400AA00020000FFFF8F0000000700000000B9
:1013F40000000000000000000000000000000000E9
:1014040000000000000000000000000000000000D8
:1014140000000000000000000000000000000000C8
:1014240000000000000000000000000000000000B8
:1014340000000000000000000000000000000000A8
:101444000000000000000000000000000000000098
:08145400200000200000000050
:040000050800015C92
:00000001FF
